:100000000C945C000C9479000C9479000C947900A9
:100010000C9479000C9479000C9479000C9479007C
:100020000C9479000C9479000C9479000C9479006C
:100030000C9479000C9479000C9479000C9479005C
:100040000C94C7000C9479000C9479000C947900FE
:100050000C9479000C9479000C9479000C9479003C
:100060000C9479000C947900000000002400270013
:100070002A0000000000250028002B0004040404CE
:100080000404040402020202020203030303030342
:10009000010204081020408001020408102001021F
:1000A00004081020000000080002010000030407FB
:1000B000000000000000000011241FBECFEFD8E0B8
:1000C000DEBFCDBF11E0A0E0B1E0EAEEF3E002C098
:1000D00005900D92A830B107D9F721E0A8E0B1E072
:1000E00001C01D92A531B207E1F70E9411010C94E5
:1000F000F3010C94000090E0FC01EC55FF4F2491BB
:10010000FC01E057FF4F3491FC01E458FF4FE491AC
:10011000EE23C9F0222339F0233001F1A8F4213075
:1001200019F1223029F1F0E0EE0FFF1FEE58FF4FDA
:10013000A591B4918FB7F894EC91611126C03095D8
:100140003E233C938FBF08952730A9F02830C9F093
:10015000243049F7809180008F7D03C0809180001A
:100160008F7780938000DFCF84B58F7784BDDBCF1E
:1001700084B58F7DFBCF8091B0008F778093B000E6
:10018000D2CF8091B0008F7DF9CF3E2BDACF1F9276
:100190000F920FB60F9211242F933F938F939F933B
:1001A000AF93BF938091110190911201A09113011F
:1001B000B09114013091100123E0230F2D3758F531
:1001C0000196A11DB11D2093100180931101909300
:1001D0001201A0931301B093140180910C0190912E
:1001E0000D01A0910E01B0910F010196A11DB11D4D
:1001F00080930C0190930D01A0930E01B0930F0119
:10020000BF91AF919F918F913F912F910F900FBE12
:100210000F901F90189526E8230F0296A11DB11D7F
:10022000D2CF789484B5826084BD84B5816084BD6A
:1002300085B5826085BD85B5816085BD80916E0084
:10024000816080936E0010928100809181008260B5
:1002500080938100809181008160809381008091F2
:1002600080008160809380008091B10084608093E1
:10027000B1008091B00081608093B00080917A00DD
:10028000846080937A0080917A00826080937A0003
:1002900080917A00816080937A0080917A008068F2
:1002A00080937A001092C10021E030E0F901E0571C
:1002B000FF4F4491F901E458FF4F84918823C1F026
:1002C00090E0880F991FFC01E859FF4FC591D49128
:1002D000FC01EE58FF4FA591B4919FB7F894888127
:1002E000E42FE0958E2388838C91E823EC939FBFC5
:1002F0002F5F3F4F28303105C9F6F901E057FF4F16
:100300004491F901E458FF4F8491882399F090E0DB
:10031000880F991FFC01E859FF4FA591B491FC018A
:10032000EE58FF4F859194918FB7F894EC91E42BA0
:10033000EC938FBF2F5F3F4F2C303105F1F608E073
:1003400011E090E0E92E90E0F92E80E0C82E81E0E7
:10035000D82EF601C191D1916F0161E08C2F0E94DE
:100360007B008BB1823431F4C830D10519F481E0BF
:1003700080930B018BB1883231F4C930D10519F467
:1003800081E080930A018BB1843131F4CA30D10508
:1003900019F481E0809309018BB1813029F4CB30CD
:1003A000D10511F48093080160E08C2F0E947B003E
:1003B0000C151D0571F680910B0190910A0189239E
:1003C00090910901892341F080910801882321F04F
:1003D00061E08CE00E947B00E114F10409F4B5CFE8
:0A03E0000E940000B2CFF894FFCF96
:0803EA00080009000A000B00E5
:00000001FF
